:020000040000FA
:06000000B7EF03F012004F
:020006000000F8
:08000800026A1E0E716E040174
:10001000400E096F200E0A6F040E0B6F880E086FDA
:100020000401200E0E6F040E0F6F400E0C6F1200B5
:10003000550EA76EAA0EA76EA68212000401226BAF
:10004000010E236F1200006A04012151005C1CE2C2
:10005000086A096A22510024F36E23510820F46EC5
:1000600024510920F86EF4CFF7FFF3CFF6FF080014
:10007000F550016E0050EA6A250FE96E040EEA227F
:1000800001C0EFFF002AE0D7F86A1200F00E040169
:100090002217840EA66E006A04012151005C23E23F
:1000A0000050EA6A250FE96E040EEA22EFCF0AF04B
:1000B0000050076E086A096A22510024F36E23512A
:1000C0000820F46E24510920F86EF4CFF7FFF3CF27
:1000D000F6FF0AC0F5FF0C000F0E00140F0801E137
:1000E000A7DF002AD9D71200940EA66E006A040179
:1000F0002151005C1DE20050076E086A060ED89080
:1001000007360836E804FBE1096A08BE09680401FD
:1001100022510724F36E23510820F46E2451092044
:10012000F86EF4CFF7FFF3CFF6FF82DF002ADFD7B8
:10013000F86A1200A66A006A04012151005C0EE20E
:1001400022510024A96EA6800050EA6A250FE96EAC
:10015000040EEA22A8CFEFFF002AEED71200006AB1
:1001600004012151005C12E222510024A96E0050CA
:10017000EA6A250FE96E040EEA22EF50A86E040E1B
:10018000A66E56DFA6B2FED7002AEAD71200C40E2A
:10019000A66E006A04012151005C1FE20050EA6A69
:1001A000250FE96E040EEA22EFCF0AF00050076E29
:1001B000086A096A22510024F36E23510820F46E64
:1001C00024510920F86EF4CFF7FFF3CFF6FF0AC0F1
:1001D000F5FF0C002DDF002ADDD7F86A12007AD86F
:1001E000060E0001755D03E36D50020B01E071D056
:1001F000020410E104010CBF0CD00401400E096F91
:10020000400E040108170401087D880E040108133C
:10021000026A5FD0040108BF5CD0006A040120516B
:10022000320A3BE0CD0A2DE0F80A27E0020A21E07D
:10023000010A1BE0070A15E0010A0FE0030A09E0C2
:10024000070A07E0060A01E035D0F8DE040E006E6A
:1002500032D0F9DE050E00262ED018DF010E006E1A
:100260002AD042DF010E006E26D064DF050E002684
:1002700022D075DF010E006E1ED089DF010E006EE8
:100280001AD06D96036A046A0306000E045A0350DE
:10029000041001E0F9D7FF000ED0030E0401215D28
:1002A00002E1010E006E040E0401215D02E1010E67
:1002B000006E01D000D0010E026E00500AE000C0B6
:1002C0000DF4400E04010C1704010C7D880E04018E
:1002D0000C131200060E0001755D0FE105500610AB
:1002E00005E18B82200E056E4E0E066E880E0518F7
:1002F00004E1130E061801E18B920506000E065A62
:020300001200E9
:0E0302006C5002E0000E01D0010E00090BE06D
:10031000040100513C0BE842E8420D0802E19CEF69
:1003200001F0A5EF01F06C5002E0000E01D0010ECB
:10033000040901E019D812000001606B616B666B63
:10034000676B7AEC02F027EF02F0020E0001605DAD
:1003500009E15CD8040100BD02D0C80E01D0880EAE
:10036000006F12006CEF02F0040E0001755D09E1F0
:1003700012C46EFF6E50000802E2050E01D0030E9B
:10038000756F0001600509E10AD8040104BD02D0BF
:10039000C80E01D0880E046F12006CEF02F000014D
:1003A000080E665D000E675903E266C069F002D070
:1003B000080E696F69C005F46951076E086A075035
:1003C000665F0850675B180E646F040E656F6951B5
:1003D0001CE0000176A307D062C0F6FF63C0F7FF00
:1003E0000800F55005D062C0E9FF63C0EAFFEF5096
:1003F00064C0E9FF65C0EAFFEF6E0001622B000EEA
:100400006323642B65236907E2D7120001C46AF0F5
:1004100000016A516625666F000E6721676F180E2E
:10042000626F040E636F6A5111E062C0E9FF63C03E
:10043000EAFFEF5064C0E9FF65C0EAFFEF6E642B8E
:10044000000E6523622B63236A07EDD712000001BB
:1004500061510BE10401080E016F100E026F040ED2
:10046000036F840E006F040123D0040110AF22D06B
:10047000000166510401165D00016751040117591E
:1004800004E216C466F017C467F089DF0001010EAC
:10049000606F0401080E016F100E026F040E036FEF
:1004A000800E006F0401180E066F040E076FC80E51
:1004B000046F10D00001020E606F0401056BC80EBE
:1004C000046F0401080E016F180E026F040E036F13
:1004D000C80E006F6D9812000001606B0401080ED9
:1004E000016F100E026F040E036F880E006F04017F
:0404F000046B120087
:0C04F40004011051600BE842E842E842AD
:10050000E842E842000901E012001151080A39E00E
:10051000010A35E00F0A0AE0030A01E012000001B7
:10052000010E616F0001040E756F12000001010ED3
:10053000616F0401130507E10001080E626F070EE9
:10054000636F120E13D0020E135D07E100011A0E45
:10055000626F070E636F200E09D0030E135D0AE170
:1005600000013A0E626F070E636F040E0001666FA2
:10057000676B02D00001616B000176831200CFEF40
:1005800002F00001010E616F0001770E626F000E34
:10059000636F000176930001010E666F1200000187
:1005A000010E616F12C477F00401125104E10001E1
:1005B000050E756F12000001060E756F04EF00F056
:1005C000080E6D6E6DBAFED7686A110E696E000175
:1005D000020E756F12006850040B06E06950040BA0
:1005E00003E06D92699468946850010B04E06950CF
:1005F000010B01E027D86850100B09E06950100B7F
:1006000006E0698468986D82A08A0300A19A685008
:10061000200B09E06950200B06E070A003D06CECC1
:1006200002F07090689A030E0001755D01E209D036
:100630006850080B06E06950080B03E081EC01F0FC
:1006400068961200686A7B0E696E6E6A160E706E8E
:1006500068A602D06896FCD76D986CEC02F0000199
:0A066000776B0001030E756F1200A6
:06066A00060EF66E000E04
:10067000F76E000EF86E00010900F550706F09006A
:10068000F550716F03E1706701D03DD00900F5505E
:100690006B6F0900F5506C6F0900F5506D6F090024
:1006A0000900F550E96E0900F550EA6E09000900ED
:1006B0000900F5506E6F0900F5506F6F09000900D1
:1006C000F6CF72F0F7CF73F0F8CF74F06BC0F6FF8F
:1006D0006CC0F7FF6DC0F8FF00016E5302E16F536D
:1006E00007E00900F550EE6E6E07F8E26F07F9D7E4
:1006F00072C0F6FF73C0F7FF74C0F8FF0001700707
:08070000000E715BBFD712006F
:080708001201000200000008CC
:10071000D8040B00000000000001090220000101C4
:1007200000803209040000020000000007050102F9
:0E073000400000070581024000000403090498
:02073E00C1CF29
:1007400079F00F0EC11282B404D079C0C1FF00EF5E
:1007500004F0FC0E8B16FC0E9416140E6F6EE0EC7B
:0E07600002F0EBEC02F0EFEC00F0FBD7120021
:02076E0013EE88
:1007700000F023EE00F0F86A0C9C35EC03F0CCECB2
:0A07800003F09FEC03F0FBD712001A
:06078A0000EE00F00F0E6E
:08079000EE6AEA62FDD71200D7
:0207980012004D
:020000040030CA
:0100000020DF
:0100010002FC
:010002003AC3
:010003001EDE
:010005008179
:010006008178
:00000001FF
