:020000040000FA
:10000000F2EF03F01200FFFF04EF04F01200FFFF15
:10001000FFFFFFFFFFFFFFFF0CEF04F012000000E7
:100020000001776B1E0E716E0401400E096F200EE9
:100030000A6F040E0B6F880E086F0401200E0E6FFE
:10004000040E0F6F400E0C6F1200550EA76EAA0E15
:10005000A76EA68212000401226B010E236F12000C
:100060000001756B040121510001755D20E275C02E
:1000700000F0016A026A040122510024F36E235148
:100080000120F46E24510220F86EF4CFF7FFF3CF75
:10009000F6FF0800F5CF76F000017551EA6A250FEA
:1000A000E96E040EEA2276C0EFFF752BDBD7F86A03
:1000B0001200F00E04012217840EA66E0001756B6B
:1000C000040121510001755D26E27551EA6A250F90
:1000D000E96E040EEA22EFCF03F075C000F0016A6A
:1000E000026A040122510024F36E23510120F46EB0
:1000F00024510220F86EF4CFF7FFF3CFF6FF03C0D0
:10010000F5FF0C000F0E000175150F0801E19DDFD2
:100110000001752BD5D71200940EA66E0001756BE9
:10012000040121510001755D1EE27551006E016AE6
:10013000060ED89000360136E804FBE1026A01BEE3
:100140000268040122510024F36E23510120F46E51
:1001500024510220F86EF4CFF7FFF3CFF6FF75DFDE
:100160000001752BDDD7F86A1200A66A0001756BD5
:10017000040121510001755D10E2040122510001CA
:100180007525A96EA6807551EA6A250FE96E040EE1
:10019000EA22A8CFEFFF752BEBD712000001756B99
:1001A000040121510001755D15E204012251000195
:1001B0007525A96E7551EA6A250FE96E040EEA22CB
:1001C000EF50A86E040EA66E40DFA6B2FED7000167
:1001D000752BE6D71200C40EA66E0001756B0401E4
:1001E00021510001755D21E27551EA6A250FE96E22
:1001F000040EEA22EFCF03F075C000F0016A026A34
:10020000040122510024F36E23510120F46E245185
:100210000220F86EF4CFF7FFF3CFF6FF03C0F5FF2F
:100220000C0013DF0001752BDAD7F86A12008BD8A7
:10023000060E00017C5D03E36D50020B01E082D0ED
:100240000001770511E104010CBF0DD00401400E3F
:10025000096F400E040108170401087D880E04018F
:1002600008130001776B6ED0040108BF6BD000014A
:10027000756B04012051320A45E0CD0A34E0F80ADA
:100280002DE0020A26E0010A1FE0070A18E0010A31
:1002900011E0030A0AE0070A08E0060A01E041D07B
:1002A000DADE0001040E756F3DD0DADE050E0001C6
:1002B000752738D0FEDE0001010E756F33D02CDFBC
:1002C0000001010E756F2ED050DF050E000175275D
:1002D00029D064DF0001010E756F24D07CDF00019E
:1002E000010E756F1FD06D960001786B796B000160
:1002F0007807000E795B00017851791101E0F7D79A
:10030000FF0010D0030E0401215D03E10001010E86
:10031000756F040E0401215D03E10001010E756F8C
:1003200001D000D00001010E776F000175510AE085
:1003300075C00DF4400E04010C1704010C7D880EED
:1003400004010C131200060E00017C5D10E1000197
:100350007A517B1105E18B82200E7A6F4E0E7B6FF6
:10036000880E7A1904E1130E7B1901E18B920001CA
:100370007A07000E7B5B12006C5002E0000E01D089
:10038000010E00090BE0040100513C0BE842E84279
:100390000D0802E1D7EF01F0E0EF01F06C5002E050
:1003A000000E01D0010E040901E019D8120000016D
:1003B000606B616B666B676BB5EC02F062EF02F02D
:1003C000020E0001605D09E15CD8040100BD02D0AD
:1003D000C80E01D0880E006F1200A7EF02F0040EC5
:1003E00000017C5D09E112C46EFF6E50000802E25C
:1003F000050E01D0030E7C6F0001600509E10AD8EB
:10040000040104BD02D0C80E01D0880E046F120092
:10041000A7EF02F00001080E665D000E675903E2C7
:1004200066C069F002D0080E696F69C005F46951B1
:10043000006E016A0050665F0150675B180E646FC2
:10044000040E656F69511CE000017DA307D062C0F6
:10045000F6FF63C0F7FF0800F55005D062C0E9FF62
:1004600063C0EAFFEF5064C0E9FF65C0EAFFEF6ECA
:100470000001622B000E6323642B65236907E2D71A
:10048000120001C46AF000016A516625666F000E11
:100490006721676F180E626F040E636F6A5111E077
:1004A00062C0E9FF63C0EAFFEF5064C0E9FF65C0C6
:1004B000EAFFEF6E642B000E6523622B63236A074D
:1004C000EDD71200000161510BE10401080E016F2C
:1004D000100E026F040E036F840E006F040123D010
:1004E000040110AF22D0000166510401165D000125
:1004F00067510401175904E216C466F017C467F087
:1005000089DF0001010E606F0401080E016F100EFB
:10051000026F040E036F800E006F0401180E066F49
:10052000040E076FC80E046F10D00001020E606F3A
:100530000401056BC80E046F0401080E016F180E4C
:10054000026F040E036FC80E006F6D981200000159
:10055000606B0401080E016F100E026F040E036F32
:10056000880E006F0401046B120004011051600B2F
:10057000E842E842E842E842E842000901E01200AD
:100580001151080A39E0010A35E00F0A0AE0030AAE
:1005900001E012000001010E616F0001040E7C6F8A
:1005A00012000001010E616F0401130507E1000153
:1005B0007E0E626F070E636F120E13D0020E135D74
:1005C00007E10001900E626F070E636F200E09D0E5
:1005D000030E135D0AE10001B00E626F070E636F38
:1005E000040E0001666F676B02D00001616B0001B1
:1005F0007D8312000AEF03F00001010E616F00011C
:100600007E0E626F000E636F00017D930001010E8C
:10061000666F12000001010E616F12C47EF00401CA
:10062000125104E10001050E7C6F12000001060E5C
:100630007C6F10EF00F0080E6D6E6DBAFED7686A21
:10064000110E696E0001020E7C6F12006850040BDF
:1006500006E06950040B03E06D9269946894685059
:10066000010B04E06950010B01E027D86850100B22
:1006700009E06950100B06E0698468986D82A08AD1
:100680000300A19A6850200B09E06950200B06E096
:1006900070A003D0A7EC02F07090689A030E0001DE
:1006A0007C5D01E209D06850080B06E06950080B38
:1006B00003E0BCEC01F068961200686A7B0E696E7C
:1006C0006E6A160E706E68A602D06896FCD76D989A
:1006D000A7EC02F000017E6B0001030E7C6F12009C
:1006E0001E0EF66E000EF76E000EF86E0001090089
:1006F000F550706F0900F550716F03E1706701D01C
:100700003DD00900F5506B6F0900F5506C6F090082
:10071000F5506D6F09000900F550E96E0900F550BC
:10072000EA6E090009000900F5506E6F0900F550E6
:100730006F6F09000900F6CF72F0F7CF73F0F8CFB2
:1007400074F06BC0F6FF6CC0F7FF6DC0F8FF0001DE
:100750006E5302E16F5307E00900F550EE6E6E072D
:10076000F8E26F07F9D772C0F6FF73C0F7FF74C0E5
:10077000F8FF00017007000E715BBFD71200120175
:10078000000200000008D8040B0000000000000177
:10079000090220000101008032090400000200006B
:1007A000000007050102400000070581024000002B
:1007B00004030904C1CF80F00F0EC11282A404D03B
:1007C00080C0C1FF00EF04F0FC0E8B16FC0E9416E7
:1007D000140E6F6E1BEC03F026EC03F017EC01F027
:1007E000FBD7120013EE00F023EE00F0F86A059C30
:1007F00070EC03F0DAEC03F0FDD71200FFFFFFFF0F
:1008000086EF0AF01200FFFF1200FFFFFFFFFFFF5D
:10081000FFFFFFFFFFFFFFFF1200FFFFFFFFFFFFD4
:10082000FFFFFFFFFFFFFFFFFFFF01004E1500006E
:100830007D00000015000000780E8B169416936A58
:10084000400E8A6E8B8E1200EAD8060E0001B65D4D
:1008500005E36D50020B01E0120001D81200000107
:10086000080EB06F0001690EAE6F000EAF6F27EC7F
:1008700009F0000901E1D2D00001606B000169516B
:10088000FF0A01E1B9D0AD0A01E1A0D0070A01E1F8
:100890008AD0040A01E17CD0010A46E0030A33E071
:1008A000160A26E0040A19E0150A01E0A7D00001A3
:1008B000430E6A6F00014E0E6B6F0001430E6C6FAA
:1008C0000001320E6D6F00012E0E6E6F0001320EB0
:1008D0006F6F0001070E606F92D000016A51E8B09F
:1008E0008A88E8A08A988B720001010E606F87D019
:1008F00000016A51E8B08A8CE8A08A9C8B720001E2
:10090000010E606F7CD000016A51E8B08A82E8A0D5
:100910008A9200016B51E8B08A86E8A08A968B72B1
:100920000001010E606F6BD08BC06AF0000E0001F9
:100930008B15146EFF0E00018C15156E0B680C6A7A
:1009400014C006F015C007F070EC0AF006C014F0F1
:1009500007C015F014C06BF08DC06CF0000E0001E4
:100960008D15146EFF0E00018E15156E0B680C6A46
:1009700014C006F015C007F070EC0AF006C014F0C1
:1009800007C015F014C06DF00001050E606F37D080
:1009900000018B6B8C6B00018D6B8E6B8B72000179
:1009A000010E606F2CD06AC064F065C067F066C04D
:1009B00068F064C072F086D800018F6B000164514A
:1009C000E82400016A6F0001606B19D06BC062F00F
:1009D0006AC063F00001606B00016251E96EEA6A6F
:1009E000D890E936EA367D0EE926000EEA22EECFEF
:1009F00065F0EDCF66F003D0FF0001D000D000011C
:100A000060510CE004010CBF09D060C0ACF00001E3
:100A1000690EAA6F000EAB6F01EC09F01200000125
:100A20009051911104E1100E906F270E916F900775
:100A3000000E915B6DA20BD09051911142E18B7031
:100A40008B50010B02E08B8212008B92120000018E
:100A5000B65102E18B9017D0B60502E18B8009D028
:100A6000020EB65D02E18B800ED0030EB65D03E18F
:100A70008B908B8212D0050EB65D07E1000190517C
:100A800091110BE18B708B9208D0060EB65D05E1DB
:100A900000019051911101E18B700001010ED8808D
:100AA0006755000E685504E26707000E685B120088
:100AB00000018F5106E164C072F004D80001010EFC
:100AC0008F6F120063C073F00001720503E0030E24
:100AD000725D05E18A8000018B2B000E8C23020ED3
:100AE0000001725D03E0030E725D05E18A8400017E
:100AF0008D2B000E8E2300017307FDE18A908A94EE
:100B0000120078C0A9FF74C005F075C006F076C069
:100B100007F077C008F0B1EC09F00750A86EA69E68
:100B2000A69CA684550EA76EAA0EA76EA682A6B294
:100B3000FED7A198A69412007AC0A9FFA69EA69CF3
:100B4000A680020EE66E94EC0AF0E552A8CF7BF088
:100B500000017B5112000001FA0E7C6F7C07FEE160
:100B6000120004011851600BE842E842E842E842F2
:100B7000E842000901E012001951070A4CE00B0A93
:100B80004AE0070A3BE0010A27E00B0A23E0020AD9
:100B900021E0030A1DE0080A12E0010A0EE00F0A34
:100BA0000AE0030A01E012000001010E936F000148
:100BB000040EB66F12000CEF06F063EF06F00001B2
:100BC000010E936F0001B80E946F000E956F10D058
:100BD00088EF06F0D3EF06F00001010E936F0401D9
:100BE0001C510001946F956BB90E9427000E95234C
:100BF0000001B7930001010E986F12000001010E71
:100C0000936F04011C51EA6AB90FE96E000EEA22E3
:100C10001AC4EFFF12001200800E0401185D52E1A9
:100C20001B51030A30E0010A0CE0030A49E100010C
:100C3000010E936F0001AA0E946F120E956F120EA3
:100C40003CD00001010E936F04011A51F66EF76A51
:100C5000D890F636F736580EF626130EF72209000E
:100C6000F5CF94F00A00F5CF95F0020E0001F76A77
:100C70009425F66E9551F7220900F5CF98F00A00F9
:100C8000F5CF99F01DD00001010E936F04011A51A8
:100C9000F66EF76AD890F636F7365C0EF626130E27
:100CA000F7220900F5CF94F00A00F5CF95F094C033
:100CB000F6FF95C0F7FF0800F5500001986F996B9B
:100CC0000001B78312000001010E936F00010F0EA7
:100CD000B56F0001710EB36F0F0EB46FE0EC08F04A
:100CE0000001010EB56F0001B90EB36F000EB46FB5
:100CF000E0EC08F01AC4B8F004011A5104E1000154
:100D0000050EB66F12000001060EB66FECEF08F08C
:100D10000401206B216B040118511F0B020A13E020
:100D2000030A0DE0010A31E10001010E936F040195
:100D300020810001B7A129D00401208326D0000121
:100D4000010E936F22D00001010E936F04011C511C
:100D50000F0B080DF350156A000F146E040E1522C8
:100D60001C51800B01E0010E040DF350000114240E
:100D7000966F000E1520976F96C0E9FFEA6EEF5050
:100D8000040B03E00401010E206F000193050AE14A
:100D90000001200E946F040E956F0001B7930001BF
:100DA000020E986F120004011A0510E118511F0B72
:100DB00000090CE10001010E936F030E0401195D9F
:100DC00003E10001B78102D00001B79104011A517B
:100DD0003AE118511F0B020836E11C510F0B0009B4
:100DE00032E00001010E936F04011C510F0B080D3E
:100DF000F350156A000F146E040E15221C51800B5F
:100E000001E0010E040DF35000011424966F000E52
:100E10001520976F030E0401195D07E1840E96C03B
:100E2000E9FF97C0EAFFEF6E12001CAF06D096C034
:100E3000E9FF97C0EAFFEF6A1200880E96C0E9FF4B
:100E400097C0EAFFEF6E12006C5002E0000E01D076
:100E5000010E00090BE0040100513C0BE842E8429E
:100E60000D0802E13FEF07F048EF07F06C5002E099
:100E7000000E01D0010E040901E019D81200000192
:100E8000926B936B986B996BB1EC05F0ECEF07F0FC
:100E9000020E0001925D09E178D8040100BD02D084
:100EA000C80E01D0880E006F120031EF08F0040E5A
:100EB0000001B65D09E11AC46EFF6E50000802E23F
:100EC000050E01D0030EB66F0001920509E10AD8A4
:100ED000040104BD02D0C80E01D0880E046F1200B8
:100EE00031EF08F00001080E985D000E995905E2F7
:100EF00098C09BF099C09CF003D0080E9B6F9C6B30
:100F000004010493049100019C51040104139BC04B
:100F100005F400019B51985D986F9C519959996F08
:100F2000200E966F040E976F0001B7A317D0000133
:100F30009B519C1129E094C0F6FF95C0F7FF080073
:100F4000F55096C0E9FF97C0EAFFEF6E962B000EB2
:100F50009723942B95239B079C5BE9D700019B511A
:100F60009C1112E094C0E9FF95C0EAFFEF5096C0D3
:100F7000E9FF97C0EAFFEF6E962B000E9723942BA4
:100F800095239B079C5BEAD71200030E0401001512
:100F900000019E6F01C49DF098519D25986F995155
:100FA0009E21996F200E946F040E956F9D519E1196
:100FB00012E094C0E9FF95C0EAFFEF5096C0E9FF48
:100FC00097C0EAFFEF6E962B000E9723942B952384
:100FD0009D079E5BEBD71200000193510BE10401CA
:100FE000080E016F180E026F040E036F840E006F5F
:100FF000040123D0040118AF22D00001985104014C
:101000001E5D0001995104011F5904E21EC498F0AD
:101010001FC499F067DF0001010E926F0401080EF2
:10102000016F180E026F040E036F800E006F040133
:10103000200E066F040E076FC80E046F10D000015B
:10104000020E926F0401056BC80E046F0401080EB6
:10105000016F200E026F040E036FC80E006F6D98B3
:1010600012000001926B0401080E016F180E026F4E
:10107000040E036F880E006F0401046B12006DA64E
:101080000CD80001B60508E16DBA06D0686A696A35
:1010900069806988020EB66F12006D6A696A6D8692
:1010A0000001010EB66F12006D6A696A0001B66B2D
:1010B000120054EF08F00001B65101E1120068502F
:1010C000040B04E06950040B01E038D86DB2120043
:1010D0006850010B04E06950010B01E050D86850E2
:1010E000100B04E06950100B01E024D86850400B4D
:1010F00004E06950400B01E037D86850200B04E051
:101100006950200B01E032D86850020B04E06950AE
:10111000020B01E032D8030E0001B65D01E21200BD
:101120006850080B06E06950080B03E024EC07F058
:1011300068961200698468986D8212006D926994B5
:10114000689412000001B7A10ED0F8DF6D84000191
:10115000080EB16F070EB26FB107000EB25BB1514E
:10116000B211FAE16D941200689C120070A003D0D5
:1011700031EC08F07090689A1200689212006A6A66
:10118000686A9F0E6B6E7B0E696E6E6A00010F0EB1
:10119000B56F0001710EB36F0F0EB46F11D8160E3C
:1011A000706E68A602D06896FCD76D9831EC08F096
:1011B0000001B7910001B86B0001030EB66F120079
:1011C000B3C0E9FFB4C0EAFF0001B55104E0EE6A24
:1011D0000001B507F9D712000001A96B1E0E716E50
:1011E0000401080E096F280E0A6F040E0B6F880E9B
:1011F000086F0401300E0E6F040E0F6F400E0C6F5F
:1012000012000001AC51080802E2080EAC6FAD6B91
:10121000AC51AD5D13E2AD51EA6AAA25E96EAB515E
:10122000EA22EF50E66EAD51EA6A300FE96E040E25
:10123000EA22E552E750EF6EAD2BEAD7ACC00DF4D1
:10124000400E04010C170C7D880E0C1312000001D7
:10125000A96B040108BF26D009510001D880B05500
:1012600002E209C4B0F0A96BB051A95D13E2A95123
:10127000EA6A280FE96E040EEA22EF50E66EA951E1
:10128000EA6AAE25E96EAF51EA22E552E750EF6E09
:10129000A92BEAD70401080E096F400E0817087D34
:1012A000880E08130001A95112001201000200006B
:1012B0000008D8040C00000001020001090220000F
:1012C000010100803209040000020000000007054F
:1012D0000103080001070581030800010403090454
:1012E00034034D006900630072006F006300680002
:1012F00069007000200054006500630068006E0003
:101300006F006C006F0067007900200049006E00DC
:1013100063002E0044035000490043004400450090
:101320004D002000460053002000550053004200AD
:101330002000440065006D006F00200042006F0037
:101340006100720064002000280043002900200092
:101350003200300030003400BC12BC12DC12E0124B
:1013600014130F6AD8EC09F00FB6BBEF09F00FA207
:101370000AD00FB403D07F0E076E19D0800E076E0F
:1013800016D0076A14D00FB0FCD7870E0860F1D7CB
:101390007E0E0864F6D7860E085C04E0D89007320B
:1013A000082AF9D70FA403D0076C07AEEAD71200BA
:1013B0000736083602E30F840F7E06E10F80086AC5
:1013C000076A066A056A1200082803E0D880073217
:1013D0001200D890073202E10F8212000F8612002D
:1013E0000C360D3602E30F8C0F7E06E10F880D6A76
:1013F0000C6A0B6A0A6A12000D2803E0D8800C32CE
:101400001200D8900C32EAE10F8A12002A0EF66E12
:10141000080EF76E000EF86E00010900F550A46F7B
:101420000900F550A56F03E1A46701D03DD0090084
:10143000F5509F6F0900F550A06F0900F550A16F9E
:1014400009000900F550E96E0900F550EA6E09003F
:1014500009000900F550A26F0900F550A36F0900BB
:101460000900F6CFA6F0F7CFA7F0F8CFA8F09FC0FD
:10147000F6FFA0C0F7FFA1C0F8FF0001A25302E1F0
:10148000A35307E00900F550EE6EA207F8E2A307A8
:10149000F9D7A6C0F6FFA7C0F7FFA8C0F8FF000164
:1014A000A407000EA55BBFD7120007D89268000101
:1014B000BB6B0FD824EC04F0FCD70F0EC112140E36
:1014C0006F6E0001B66B0001B76B0001B86B1CEFCB
:1014D00004F03FEC08F06FBE02D05BEC08F01200A5
:1014E000036A026A100EE76ED89006360736023697
:1014F00003360B50025C0C50035805E30B50025EA0
:101500000C50035A062AE72EF0D7120013EE00F013
:1015100023EE00F0F86A0F9C06EC0AF0A6EC0AF045
:1015200055EC0AF0FBD71200FF0EE350E84E120014
:10153000000000D000D000D0E82EFAD7120000EE54
:1015400000F00F0EEE6AEA62FDD7120012003801B9
:10155000960064004B003E003200250000000000B1
:10156000010000FFFFFFFFFFFFFFFFFFFFFFFFFF87
:10157000FFFFFFFFFFFFFFFFFFFFFFFFFFFFFFFF7B
:10158000FFFFFFFFFFFFFFFFFFFFFFFFFFFFFFFF6B
:10159000FFFFFFFFFFFFFFFFFFFFFFFFFFFFFFFF5B
:1015A000FFFFFFFFFFFFFFFFFFFFFFFFFFFFFFFF4B
:0200000400F00A
:10000000010143FFFFFFFFFFFFFFFFFFFFFFFFFFB8
:10001000FFFFFFFFFFFFFFFFFFFFFFFFFFFFFFFFF0
:10002000FFFFFFFFFFFFFFFFFFFFFFFFFFFFFFFFE0
:10003000FFFFFFFFFFFFFFFFFFFFFFFFFFFFFFFFD0
:10004000FFFFFFFFFFFFFFFFFFFFFFFFFFFFFFFFC0
:10005000FFFFFFFFFFFFFFFFFFFFFFFFFFFFFFFFB0
:10006000FFFFFFFFFFFFFFFFFFFFFFFFFFFFFFFFA0
:10007000FFFFFFFFFFFFFFFFFFFFFFFFFFFFFFFF90
:10008000FFFFFFFFFFFFFFFFFFFFFFFFFFFFFFFF80
:10009000FFFFFFFFFFFFFFFFFFFFFFFFFFFFFFFF70
:1000A000FFFFFFFFFFFFFFFFFFFFFFFFFFFFFFFF60
:1000B000FFFFFFFFFFFFFFFFFFFFFFFFFFFFFFFF50
:1000C000FFFFFFFFFFFFFFFFFFFFFFFFFFFFFFFF40
:1000D000FFFFFFFFFFFFFFFFFFFFFFFFFFFFFFFF30
:1000E000FFFFFFFFFFFFFFFFFFFFFFFFFFFFFFFF20
:1000F000FFFFFFFFFFFFFFFFFFFFFFFFFFFFFFFF10
:020000040030CA
:0E000000240E3F1E008181000FC00FA00F4094
:020000040020DA
:08000000FFFFFFFFFFFFFFFF00
:00000001FF
