:020000040000FA
:060000009BEF0AF0120064
:060800009BEF0AF012005C
:020808001200DC
:020818001200CC
:06082A000100781500003A
:080830007D000000150000002E
:08083800780E8B169416936AEA
:10084000400E8A6E8B8E1200FFD8060E0001B65D38
:1008500005E36D50020B01E0120001D81200000107
:10086000080EB06F0001690EAE6F000EAF6F3CEC6A
:1008700009F0000901E1E7D00001606B0001695156
:10088000FF0A01E1CED0AD0A01E1B4D0070A01E1CF
:100890009ED0040A01E191D0010A5BE0030A33E033
:1008A000160A26E0040A19E0150A01E0BCD000018E
:1008B000430E6A6F00014E0E6B6F0001430E6C6FAA
:1008C0000001320E6D6F00012E0E6E6F0001330EAF
:1008D0006F6F0001070E606FA7D000016A51E8B08A
:1008E0008A88E8A08A988B720001010E606F9CD004
:1008F00000016A51E8B08A8CE8A08A9C8B720001E2
:10090000010E606F91D000016A51E8B08A82E8A0C0
:100910008A9200016B51E8B08A86E8A08A968B72B1
:100920000001FE0E606F000160516007000901E0E8
:10093000FAD78150020B01E0010E00016A6F81506D
:10094000080B01E0010E00016B6F0001030E606FE8
:100950006BD08BC06AF0000E00018B15146EFF0E79
:1009600000018C15156E0B680C6A14C006F015C0DA
:1009700007F085EC0AF006C014F007C015F014C0AB
:100980006BF08DC06CF0000E00018D15146EFF0E23
:1009900000018E15156E0B680C6A14C006F015C0A8
:1009A00007F085EC0AF006C014F007C015F014C07B
:1009B0006DF00001050E606F37D000018B6B8C6B02
:1009C00000018D6B8E6B0001010E606F2DD06AC02F
:1009D00064F065C067F066C068F064C072F087D8E4
:1009E00000018F6B00016451E82400016A6F00016F
:1009F000606B1AD06BC062F06AC063F00001010E38
:100A0000606F00016251E96EEA6AD890E936EA3611
:100A10007D0EE926000EEA22EECF65F0EDCF66F0FE
:100A200003D0FF0001D000D0000160510CE00401B0
:100A30000CBF09D060C0ACF00001690EAA6F000EB7
:100A4000AB6F16EC09F0120000019051911104E116
:100A5000100E906F270E916F9007000E915B6DA2A4
:100A60000BD09051911142E18B708B50010B02E041
:100A70008B8212008B9212000001B65102E18B9022
:100A800017D0B60502E18B8009D0020EB65D02E1F7
:100A90008B800ED0030EB65D03E18B908B8212D05B
:100AA000050EB65D07E10001905191110BE18B70CD
:100AB0008B9208D0060EB65D05E1000190519111B0
:100AC00001E18B700001010ED8806755000E68555A
:100AD00004E26707000E685B120000018F5106E117
:100AE00064C072F004D80001010E8F6F120063C061
:100AF00073F00001720503E0030E725D05E18A8068
:100B000000018B2B000E8C23020E0001725D03E0AE
:100B1000030E725D05E18A8400018D2B000E8E2389
:100B200000017307FDE18A908A94120078C0A9FF42
:100B300074C005F075C006F076C007F077C008F005
:100B4000C6EC09F00750A86EA69EA69CA684550E7A
:100B5000A76EAA0EA76EA682A6B2FED7A198A694EB
:100B600012007AC0A9FFA69EA69CA680020EE66E81
:100B7000A9EC0AF0E552A8CF7BF000017B511200EE
:0C0B80000001FA0E7C6F7C07FEE1120001
:040B8C0004011851F7
:100B9000600BE842E842E842E842E842000901E02E
:100BA00012001951070A4CE00B0A4AE0070A3BE021
:100BB000010A27E00B0A23E0020A21E0030A1DE0F4
:100BC000080A12E0010A0EE00F0A0AE0030A01E037
:100BD00012000001010E936F0001040EB66F1200A7
:100BE00021EF06F078EF06F00001010E936F00018F
:100BF000B80E946F000E956F10D09DEF06F0E8EFE1
:100C000006F00001010E936F04011C510001946F66
:100C1000956BB90E9427000E95230001B793000140
:100C2000010E986F12000001010E936F04011C5118
:100C3000EA6AB90FE96E000EEA221AC4EFFF120049
:100C40001200800E0401185D52E11B51030A30E0CE
:100C5000010A0CE0030A49E10001010E936F000153
:100C6000D40E946F120E956F120E3CD00001010E3F
:100C7000936F04011A51F66EF76AD890F636F7367C
:100C8000820EF626130EF7220900F5CF94F00A0023
:100C9000F5CF95F0020E0001F76A9425F66E955196
:100CA000F7220900F5CF98F00A00F5CF99F01DD092
:100CB0000001010E936F04011A51F66EF76AD89085
:100CC000F636F736860EF626130EF7220900F5CF14
:100CD00094F00A00F5CF95F094C0F6FF95C0F7FFA9
:100CE0000800F5500001986F996B0001B78312005E
:100CF0000001010E936F00010F0EB56F0001710E20
:100D0000B36F0F0EB46FF5EC08F00001010EB56F74
:100D10000001B90EB36F000EB46FF5EC08F01AC401
:100D2000B8F004011A5104E10001050EB66F12007B
:100D30000001060EB66F01EF09F00401206B216B74
:100D4000040118511F0B020A13E0030A0DE0010A07
:100D500031E10001010E936F040120810001B7A170
:100D600029D00401208326D00001010E936F22D0E8
:100D70000001010E936F04011C510F0B080DF3507D
:100D8000156A000F146E040E15221C51800B01E031
:100D9000010E040DF35000011424966F000E15206F
:100DA000976F96C0E9FFEA6EEF50040B03E0040171
:100DB000010E206F000193050AE10001200E946FDF
:100DC000040E956F0001B7930001020E986F120098
:100DD00004011A0510E118511F0B00090CE1000174
:100DE000010E936F030E0401195D03E10001B78149
:100DF00002D00001B79104011A513AE118511F0BBA
:100E0000020836E11C510F0B000932E00001010E0F
:100E1000936F04011C510F0B080DF350156A000F5E
:100E2000146E040E15221C51800B01E0010E040DFE
:100E3000F35000011424966F000E1520976F030ED7
:100E40000401195D07E1840E96C0E9FF97C0EAFF2F
:100E5000EF6E12001CAF06D096C0E9FF97C0EAFF04
:100E6000EF6A1200880E96C0E9FF97C0EAFFEF6EA6
:020E700012006E
:0E0E72006C5002E0000E01D0010E00090BE0F2
:100E8000040100513C0BE842E8420D0802E154EF36
:100E900007F05DEF07F06C5002E0000E01D0010E8C
:100EA000040901E019D812000001926B936B986B52
:100EB000996BC6EC05F001EF08F0020E0001925D9F
:100EC00009E178D8040100BD02D0C80E01D0880E17
:100ED000006F120046EF08F0040E0001B65D09E154
:100EE0001AC46EFF6E50000802E2050E01D0030E18
:100EF000B66F0001920509E10AD8040104BD02D0D1
:100F0000C80E01D0880E046F120046EF08F00001F1
:100F1000080E985D000E995905E298C09BF099C0A3
:100F20009CF003D0080E9B6F9C6B0401049304910A
:100F300000019C51040104139BC005F400019B5166
:100F4000985D986F9C519959996F200E966F040E79
:100F5000976F0001B7A317D000019B519C1129E0A6
:100F600094C0F6FF95C0F7FF0800F55096C0E9FF62
:100F700097C0EAFFEF6E962B000E9723942B9523D4
:100F80009B079C5BE9D700019B519C1112E094C028
:100F9000E9FF95C0EAFFEF5096C0E9FF97C0EAFF6E
:100FA000EF6E962B000E9723942B95239B079C5B4B
:100FB000EAD71200030E0401001500019E6F01C460
:100FC0009DF098519D25986F99519E21996F200E03
:100FD000946F040E956F9D519E1112E094C0E9FF2D
:100FE00095C0EAFFEF5096C0E9FF97C0EAFFEF6EA9
:100FF000962B000E9723942B95239D079E5BEBD792
:101000001200000193510BE10401080E016F180E4C
:10101000026F040E036F840E006F040123D00401DD
:1010200018AF22D00001985104011E5D00019951B2
:1010300004011F5904E21EC498F01FC499F067DF31
:101040000001010E926F0401080E016F180E026F6D
:10105000040E036F800E006F0401200E066F040E55
:10106000076FC80E046F10D00001020E926F0401CA
:10107000056BC80E046F0401080E016F200E026F8D
:10108000040E036FC80E006F6D9812000001926B82
:101090000401080E016F180E026F040E036F880E14
:0810A000006F0401046B120053
:0810A8006DA60CD80001B6058D
:1010B00008E16DBA06D0686A696A69806988020EBB
:1010C000B66F12006D6A696A6D860001010EB66F17
:1010D00012006D6A696A0001B66B120069EF08F0D0
:1010E0000001B65101E112006850040B04E06950A0
:1010F000040B01E038D86DB212006850010B04E017
:101100006950010B01E050D86850100B04E06950A1
:10111000100B01E024D86850400B04E06950400BEC
:1011200001E037D86850200B04E06950200B01E043
:1011300032D86850020B04E06950020B01E032D84B
:10114000030E0001B65D01E212006850080B06E0D4
:101150006950080B03E039EC07F0689612006984C7
:1011600068986D8212006D92699468941200000173
:10117000B7A10ED0F8DF6D840001080EB16F070E25
:10118000B26FB107000EB25BB151B211FAE16D94CA
:101190001200689C120070A003D046EC08F070901A
:1011A000689A1200689212006A6A686A9F0E6B6EF3
:1011B0007B0E696E6E6A00010F0EB56F0001710E35
:1011C000B36F0F0EB46F11D8160E706E68A602D0F2
:1011D0006896FCD76D9846EC08F00001B7910001C5
:1011E000B86B0001030EB66F1200B3C0E9FFB4C0C4
:1011F000EAFF0001B55104E0EE6A0001B507F9D736
:021200001200DA
:0E1202000001A96B1E0E716E0401080E096F2B
:10121000280E0A6F040E0B6F880E086F0401300E43
:101220000E6F040E0F6F400E0C6F12000001AC51D8
:10123000080802E2080EAC6FAD6BAC51AD5D13E275
:10124000AD51EA6AAA25E96EAB51EA22EF50E66E8B
:10125000AD51EA6A300FE96E040EEA22E552E7501A
:10126000EF6EAD2BEAD7ACC00DF4400E04010C17A5
:101270000C7D880E0C1312000001A96B040108BF3D
:1012800026D009510001D880B05502E209C4B0F05F
:10129000A96BB051A95D13E2A951EA6A280FE96E62
:1012A000040EEA22EF50E66EA951EA6AAE25E96E15
:1012B000AF51EA22E552E750EF6EA92BEAD70401BD
:1012C000080E096F400E0817087D880E08130001EC
:0412D000A95112000E
:0C12D4001201000200000008D8040C0009
:1012E0000000010200010902200001010080320912
:1012F00004000002000000000705010308000107C8
:101300000581030800010403090434034D0069004A
:10131000630072006F0063006800690070002000C5
:1013200054006500630068006E006F006C006F0081
:1013300067007900200049006E0063002E0044031E
:10134000500049004300440045004D002000460085
:101350005300200055005300420020004400650067
:101360006D006F00200042006F0061007200640099
:101370002000280043002900200032003000300007
:0C1380003400E612E61206130A133E13B6
:04138C000F6AEDEC0B
:1013900009F00FB6D0EF09F00FA20AD00FB403D0B6
:1013A0007F0E076E19D0800E076E16D0076A14D014
:1013B0000FB0FCD7870E0860F1D77E0E0864F6D711
:1013C000860E085C04E0D8900732082AF9D70FA4EB
:1013D00003D0076C07AEEAD712000736083602E3DF
:1013E0000F840F7E06E10F80086A076A066A056AA5
:1013F0001200082803E0D88007321200D890073284
:1014000002E10F8212000F8612000C360D3602E345
:101410000F8C0F7E06E10F880D6A0C6A0B6A0A6A50
:1014200012000D2803E0D8800C321200D8900C3244
:06143000EAE10F8A120040
:0A1436002A0EF66E080EF76E000E87
:10144000F86E00010900F550A46F0900F550A56F72
:1014500003E1A46701D03DD00900F5509F6F09005A
:10146000F550A06F0900F550A16F09000900F55073
:10147000E96E0900F550EA6E090009000900F5500F
:10148000A26F0900F550A36F09000900F6CFA6F07E
:10149000F7CFA7F0F8CFA8F09FC0F6FFA0C0F7FFE6
:1014A000A1C0F8FF0001A25302E1A35307E0090025
:1014B000F550EE6EA207F8E2A307F9D7A6C0F6FF33
:1014C000A7C0F7FFA8C0F8FF0001A407000EA55BA6
:0414D000BFD7120070
:0C14D40007D892680001BB6B0FD824EC15
:1014E00004F0FCD70F0EC112140E6F6E0001B66B24
:1014F0000001B76B0001B86B1CEF04F054EC08F06E
:0A1500006FBE02D070EC08F012007C
:06150A00036A026A100EE4
:10151000E76ED89006360736023603360B50025C6B
:101520000C50035805E30B50025E0C50035A062A78
:06153000E72EF0D71200C7
:0A15360013EE00F023EE00F0F86A57
:101540000F9C1BEC0AF0BBEC0AF06AEC0AF0FBD72C
:02155000120087
:0E155200FF0EE350E84E1200000000D000D063
:0815600000D0E82EFAD71200BA
:0815680000EE00F00F0EEE6A28
:06157000EA62FDD7120043
:02157600120061
:08157800E803F4014001E60064
:0D158000BE00A0005A0000000000010000A5
:00000001FF
